:020000040000FA
:1000000010020010E1000000E9000000EB00000019
:10001000ED000000EF000000F10000000000000013
:10002000000000000000000000000000F3000000DD
:10003000F500000000000000F7000000F9000000DB
:10004000FB000000FB000000FB000000FB000000C4
:10005000FB000000FB000000FB000000FB000000B4
:10006000FB000000FB000000FB000000FB000000A4
:10007000FB000000FB000000FB000000FB00000094
:10008000FB000000FB000000FB000000FB00000084
:10009000FB000000FB000000FB000000FB00000074
:1000A000FB000000FB000000FB000000FB00000064
:1000B000FB000000FB000000FB000000FB00000054
:1000C000FB000000FB000000FB000000DFF80CD08C
:1000D00000F0D6F8004800470501000010020010AB
:1000E0000648804706480047FEE7FEE7FEE7FEE7D2
:1000F000FEE7FEE7FEE7FEE7FEE7FEE7A9040000F5
:10010000CD00000000F0D0F900F0FAF82D480068AA
:100110002D4908402B4908602C48006840F47F6056
:100120002A4908604DE0102029490860012029492A
:1001300008601BE0264800682449886100202649A1
:10014000086004E024480068401C234908602248F5
:10015000006822498842F5D31D48006840001C49C8
:1001600008601C480068401C1A490860194800686B
:100170000928DFD3102016490860012015490860BE
:100180001BE0134800681149C8610020124908604B
:1001900004E011480068401C0F4908600E480068E0
:1001A0000E498842F5D30A480068400008490860B3
:1001B00008480068401C074908600648006809288C
:1001C000DFD3B0E700C00240FF0000FF00C00920FD
:1001D000000000100400001008000010A0860100BC
:1001E0002DE9F05F0546002092469B46884606466C
:1001F000814640241BE0284641464746224600F0FF
:100200002FF853465A46C01A914110D3114618464A
:10021000224600F016F82D1A67EB01084F462246D9
:100220000120002100F00DF817EB00094E41201EBF
:10023000A4F10104DFDC484631462A464346BDE8C6
:10024000F09F202A04DB203A00FA02F100207047D8
:100250009140C2F1200320FA03F319439040704704
:10026000202A04DB203A21FA02F00021704721FA0B
:1002700002F3D040C2F12002914008431946704772
:10028000064C074D06E0E06840F0010394E80700E3
:1002900098471034AC42F6D3FFF71CFFC4020000AD
:1002A000E402000002E008C8121F08C1002AFAD1C7
:1002B00070477047002001E001C1121F002AFBD1E6
:1002C0007047000018060000000000101000000039
:1002D000A402000028060000100000100002000028
:1002E000B402000000000000000000000000000058
:1002F000000000000000000000000000FFFFFFFF02
:100300002DE9F047B1480068C0F3016003287CD1B3
:10031000AF48006810F0030006D0012833D002284F
:100320005FD003282ED100E000BFA8480068C0F3CA
:10033000074000F101044FF00201A648D0F8880000
:10034000C0F30E0000F10100A1FB0001A24B4FF031
:10035000000CA0FB037901FB039100FB0C1122466A
:1003600063463846FFF73CFF05469C480068C0B22C
:1003700000F1010422464FF000032846FFF730FF4A
:10038000974908605DE091480068C0F3074000F1BC
:1003900001044FF002018F48D0F88800C0F30E002E
:1003A00000F10100A1FB00108E4A4FF0000CA1FBF0
:1003B000027900FB029001FB0C012246634638469D
:1003C000FFF70EFF054685480068C0B200F1010442
:1003D00022464FF000032846FFF702FF80490860DD
:1003E0002FE07A480068C0F3074000F101044FF0A5
:1003F00002017848D0F88800C0F30E0000F1010037
:10040000A1FB00124FF4004000E01BE04FF000039E
:10041000A1FB007902FB009001FB03012246384654
:10042000FFF7DEFE05466D480068C0B200F101042A
:1004300022464FF000032846FFF7D2FE68490860C5
:1004400000BF2FE06248006810F0030006D00128CA
:1004500010D0022819D0032823D100E000BF5F4844
:100460000068C0B200F101005B49B1FBF0F05C49EB
:10047000086016E059480068C0B200F1010059490F
:10048000B1FBF0F0564908600BE054480068C0B278
:1004900000F101004FF40041B1FBF0F05049086059
:1004A00000BF00BFBDE8F08720204F4908604948E1
:1004B000D0F8A00110F0200F05D000BF4A48006816
:1004C00010F0400FFAD00320444908604FF00000BC
:1004D0004049C1F8A801454908604FF001003C4976
:1004E00008604348434908604FF0AA004249086049
:1004F0004FF0550008604FF00100404908604FF090
:10050000AA003D4908604FF055003249C1F88C00FF
:1005100000BF2E48006810F0806FFAD003203749E2
:1005200008604FF0AA002B49C1F88C004FF055002D
:100530003149086000BF2548006800F04070B0F104
:10054000407FF8D123202E4908604FF0AA002149AE
:10055000C1F8AC004FF055002A4908604FF0010087
:10056000294908604FF0AA00264908604FF055005D
:100570001849C1F8AC0000BF2448006810F4806F2F
:10058000FAD00320204908604FF0AA001149C1F8B1
:10059000AC004FF055001B49086000BF1B480068C5
:1005A00000F44070B0F5407FF8D11948194908604F
:1005B0004FF000000749C1F8C8010846006820F460
:1005C000704040F4804008607047000088C00F40D1
:1005D0000CC10F4000C00F4000093D0004C10F4096
:1005E0000C000010001BB700A0C10F40ACC10F40B1
:1005F0006300050084C00F408CC00F4080C00F40D6
:10060000A4C00F40ACC00F40A0C00F40A8C00F4016
:10061000DE872804C4C00F40100000000000000066
:080620000000000000E1F505F7
:04000005000000CD2A
:00000001FF
